{
  "_format": "hh-sol-artifact-1",
  "contractName": "Appointments",
  "sourceName": "contracts/Appointments.sol",
  "abi": [
    {
      "inputs": [],
      "name": "Appointment__TransferFailed",
      "type": "error"
    },
    {
      "inputs": [
        {
          "internalType": "address payable",
          "name": "_docAddr",
          "type": "address"
        },
        {
          "internalType": "string",
          "name": "_docName",
          "type": "string"
        },
        {
          "internalType": "uint256",
          "name": "_fee",
          "type": "uint256"
        }
      ],
      "name": "addDoctors",
      "outputs": [],
      "stateMutability": "nonpayable",
      "type": "function"
    },
    {
      "inputs": [
        {
          "internalType": "uint256",
          "name": "",
          "type": "uint256"
        }
      ],
      "name": "appointmentId",
      "outputs": [
        {
          "internalType": "uint256",
          "name": "",
          "type": "uint256"
        }
      ],
      "stateMutability": "view",
      "type": "function"
    },
    {
      "inputs": [
        {
          "internalType": "uint256",
          "name": "",
          "type": "uint256"
        }
      ],
      "name": "appointments",
      "outputs": [
        {
          "internalType": "uint256",
          "name": "ID",
          "type": "uint256"
        },
        {
          "internalType": "address",
          "name": "patientAddr",
          "type": "address"
        },
        {
          "internalType": "string",
          "name": "patientName",
          "type": "string"
        },
        {
          "internalType": "uint256",
          "name": "date",
          "type": "uint256"
        },
        {
          "internalType": "uint256",
          "name": "time",
          "type": "uint256"
        },
        {
          "internalType": "address",
          "name": "doctorAddr",
          "type": "address"
        },
        {
          "internalType": "string",
          "name": "doctorName",
          "type": "string"
        },
        {
          "internalType": "bool",
          "name": "payment",
          "type": "bool"
        }
      ],
      "stateMutability": "view",
      "type": "function"
    },
    {
      "inputs": [
        {
          "internalType": "address",
          "name": "_patientAddr",
          "type": "address"
        },
        {
          "internalType": "string",
          "name": "_patientName",
          "type": "string"
        },
        {
          "internalType": "uint256",
          "name": "_date",
          "type": "uint256"
        },
        {
          "internalType": "uint256",
          "name": "_time",
          "type": "uint256"
        },
        {
          "internalType": "address",
          "name": "_docAddr",
          "type": "address"
        }
      ],
      "name": "bookAppointment",
      "outputs": [],
      "stateMutability": "payable",
      "type": "function"
    },
    {
      "inputs": [
        {
          "internalType": "address",
          "name": "",
          "type": "address"
        }
      ],
      "name": "doctors",
      "outputs": [
        {
          "internalType": "address payable",
          "name": "addr",
          "type": "address"
        },
        {
          "internalType": "string",
          "name": "name",
          "type": "string"
        },
        {
          "internalType": "bool",
          "name": "availablity",
          "type": "bool"
        },
        {
          "internalType": "uint256",
          "name": "fee",
          "type": "uint256"
        }
      ],
      "stateMutability": "view",
      "type": "function"
    },
    {
      "inputs": [
        {
          "internalType": "uint256",
          "name": "_ID",
          "type": "uint256"
        }
      ],
      "name": "getAppointmentDate",
      "outputs": [
        {
          "internalType": "uint256",
          "name": "",
          "type": "uint256"
        }
      ],
      "stateMutability": "view",
      "type": "function"
    },
    {
      "inputs": [
        {
          "internalType": "uint256",
          "name": "_ID",
          "type": "uint256"
        }
      ],
      "name": "getAppointmentTime",
      "outputs": [
        {
          "internalType": "uint256",
          "name": "",
          "type": "uint256"
        }
      ],
      "stateMutability": "view",
      "type": "function"
    },
    {
      "inputs": [
        {
          "internalType": "uint256",
          "name": "_ID",
          "type": "uint256"
        }
      ],
      "name": "getDoctorAddress",
      "outputs": [
        {
          "internalType": "address",
          "name": "",
          "type": "address"
        }
      ],
      "stateMutability": "view",
      "type": "function"
    },
    {
      "inputs": [
        {
          "internalType": "uint256",
          "name": "_ID",
          "type": "uint256"
        }
      ],
      "name": "getDoctorName",
      "outputs": [
        {
          "internalType": "string",
          "name": "",
          "type": "string"
        }
      ],
      "stateMutability": "view",
      "type": "function"
    },
    {
      "inputs": [
        {
          "internalType": "uint256",
          "name": "_ID",
          "type": "uint256"
        }
      ],
      "name": "getPatientAddress",
      "outputs": [
        {
          "internalType": "address",
          "name": "",
          "type": "address"
        }
      ],
      "stateMutability": "view",
      "type": "function"
    },
    {
      "inputs": [
        {
          "internalType": "uint256",
          "name": "_ID",
          "type": "uint256"
        }
      ],
      "name": "getPatientName",
      "outputs": [
        {
          "internalType": "string",
          "name": "",
          "type": "string"
        }
      ],
      "stateMutability": "view",
      "type": "function"
    }
  ],
  "bytecode": "0x608060405234801561001057600080fd5b5061197e806100206000396000f3fe60806040526004361061009c5760003560e01c8063756e586011610064578063756e5860146101b8578063834b5d47146101f557806395255dfa14610232578063a9583c221461025b578063cb32db721461029b578063d142c3d3146102d85761009c565b8063097ee8cd146100a157806312dc9013146100de57806351c42cf51461012257806357f7e4a11461013e5780636788d8751461017b575b600080fd5b3480156100ad57600080fd5b506100c860048036038101906100c39190610f2c565b610315565b6040516100d59190610f9a565b60405180910390f35b3480156100ea57600080fd5b5061010560048036038101906101009190610f2c565b610364565b60405161011998979695949392919061106f565b60405180910390f35b61013c6004803603810190610137919061125c565b610519565b005b34801561014a57600080fd5b5061016560048036038101906101609190610f2c565b610ab7565b60405161017291906112f3565b60405180910390f35b34801561018757600080fd5b506101a2600480360381019061019d9190610f2c565b610adb565b6040516101af91906112f3565b60405180910390f35b3480156101c457600080fd5b506101df60048036038101906101da9190610f2c565b610b0a565b6040516101ec919061130e565b60405180910390f35b34801561020157600080fd5b5061021c60048036038101906102179190610f2c565b610bc1565b6040516102299190610f9a565b60405180910390f35b34801561023e57600080fd5b506102596004803603810190610254919061136e565b610c10565b005b34801561026757600080fd5b50610282600480360381019061027d91906113dd565b610d17565b6040516102929493929190611419565b60405180910390f35b3480156102a757600080fd5b506102c260048036038101906102bd9190610f2c565b610dfc565b6040516102cf91906112f3565b60405180910390f35b3480156102e457600080fd5b506102ff60048036038101906102fa9190610f2c565b610e2b565b60405161030c919061130e565b60405180910390f35b60006001828154811061032b5761032a611465565b5b906000526020600020906008020160010160009054906101000a900473ffffffffffffffffffffffffffffffffffffffff169050919050565b6001818154811061037457600080fd5b90600052602060002090600802016000915090508060000154908060010160009054906101000a900473ffffffffffffffffffffffffffffffffffffffff16908060020180546103c3906114c3565b80601f01602080910402602001604051908101604052809291908181526020018280546103ef906114c3565b801561043c5780601f106104115761010080835404028352916020019161043c565b820191906000526020600020905b81548152906001019060200180831161041f57829003601f168201915b5050505050908060030154908060040154908060050160009054906101000a900473ffffffffffffffffffffffffffffffffffffffff1690806006018054610483906114c3565b80601f01602080910402602001604051908101604052809291908181526020018280546104af906114c3565b80156104fc5780601f106104d1576101008083540402835291602001916104fc565b820191906000526020600020905b8154815290600101906020018083116104df57829003601f168201915b5050505050908060070160009054906101000a900460ff16905088565b6000808273ffffffffffffffffffffffffffffffffffffffff1673ffffffffffffffffffffffffffffffffffffffff16815260200190815260200160002060020160009054906101000a900460ff166105a7576040517f08c379a000000000000000000000000000000000000000000000000000000000815260040161059e90611566565b60405180910390fd5b428310156105ea576040517f08c379a00000000000000000000000000000000000000000000000000000000081526004016105e1906115d2565b60405180910390fd5b6000808273ffffffffffffffffffffffffffffffffffffffff1673ffffffffffffffffffffffffffffffffffffffff1681526020019081526020016000206003015434101561066e576040517f08c379a000000000000000000000000000000000000000000000000000000000815260040161066590611664565b60405180910390fd5b60008060008373ffffffffffffffffffffffffffffffffffffffff1673ffffffffffffffffffffffffffffffffffffffff16815260200190815260200160002060000160009054906101000a900473ffffffffffffffffffffffffffffffffffffffff16905060008060008473ffffffffffffffffffffffffffffffffffffffff1673ffffffffffffffffffffffffffffffffffffffff1681526020019081526020016000206003015490506000808373ffffffffffffffffffffffffffffffffffffffff1683604051610741906116b5565b60006040518083038185875af1925050503d806000811461077e576040519150601f19603f3d011682016040523d82523d6000602084013e610783565b606091505b50509050806107be576040517f12ed0e1800000000000000000000000000000000000000000000000000000000815260040160405180910390fd5b600191506000600180549050905060006040518061010001604052808381526020018c73ffffffffffffffffffffffffffffffffffffffff1681526020018b81526020018a81526020018981526020018873ffffffffffffffffffffffffffffffffffffffff1681526020016000808a73ffffffffffffffffffffffffffffffffffffffff1673ffffffffffffffffffffffffffffffffffffffff1681526020019081526020016000206001018054610876906114c3565b80601f01602080910402602001604051908101604052809291908181526020018280546108a2906114c3565b80156108ef5780601f106108c4576101008083540402835291602001916108ef565b820191906000526020600020905b8154815290600101906020018083116108d257829003601f168201915b50505050508152602001851515815250905060018190806001815401808255809150506001900390600052602060002090600802016000909190919091506000820151816000015560208201518160010160006101000a81548173ffffffffffffffffffffffffffffffffffffffff021916908373ffffffffffffffffffffffffffffffffffffffff16021790555060408201518160020190816109939190611876565b50606082015181600301556080820151816004015560a08201518160050160006101000a81548173ffffffffffffffffffffffffffffffffffffffff021916908373ffffffffffffffffffffffffffffffffffffffff16021790555060c0820151816006019081610a049190611876565b5060e08201518160070160006101000a81548160ff0219169083151502179055505050600282908060018154018082558091505060019003906000526020600020016000909190919091505560008060008973ffffffffffffffffffffffffffffffffffffffff1673ffffffffffffffffffffffffffffffffffffffff16815260200190815260200160002060020160006101000a81548160ff0219169083151502179055505050505050505050505050565b60028181548110610ac757600080fd5b906000526020600020016000915090505481565b600060018281548110610af157610af0611465565b5b9060005260206000209060080201600301549050919050565b606060018281548110610b2057610b1f611465565b5b90600052602060002090600802016006018054610b3c906114c3565b80601f0160208091040260200160405190810160405280929190818152602001828054610b68906114c3565b8015610bb55780601f10610b8a57610100808354040283529160200191610bb5565b820191906000526020600020905b815481529060010190602001808311610b9857829003601f168201915b50505050509050919050565b600060018281548110610bd757610bd6611465565b5b906000526020600020906008020160050160009054906101000a900473ffffffffffffffffffffffffffffffffffffffff169050919050565b60405180608001604052808473ffffffffffffffffffffffffffffffffffffffff168152602001838152602001600115158152602001828152506000808573ffffffffffffffffffffffffffffffffffffffff1673ffffffffffffffffffffffffffffffffffffffff16815260200190815260200160002060008201518160000160006101000a81548173ffffffffffffffffffffffffffffffffffffffff021916908373ffffffffffffffffffffffffffffffffffffffff1602179055506020820151816001019081610ce49190611876565b5060408201518160020160006101000a81548160ff02191690831515021790555060608201518160030155905050505050565b60006020528060005260406000206000915090508060000160009054906101000a900473ffffffffffffffffffffffffffffffffffffffff1690806001018054610d60906114c3565b80601f0160208091040260200160405190810160405280929190818152602001828054610d8c906114c3565b8015610dd95780601f10610dae57610100808354040283529160200191610dd9565b820191906000526020600020905b815481529060010190602001808311610dbc57829003601f168201915b5050505050908060020160009054906101000a900460ff16908060030154905084565b600060018281548110610e1257610e11611465565b5b9060005260206000209060080201600401549050919050565b606060018281548110610e4157610e40611465565b5b90600052602060002090600802016002018054610e5d906114c3565b80601f0160208091040260200160405190810160405280929190818152602001828054610e89906114c3565b8015610ed65780601f10610eab57610100808354040283529160200191610ed6565b820191906000526020600020905b815481529060010190602001808311610eb957829003601f168201915b50505050509050919050565b6000604051905090565b600080fd5b600080fd5b6000819050919050565b610f0981610ef6565b8114610f1457600080fd5b50565b600081359050610f2681610f00565b92915050565b600060208284031215610f4257610f41610eec565b5b6000610f5084828501610f17565b91505092915050565b600073ffffffffffffffffffffffffffffffffffffffff82169050919050565b6000610f8482610f59565b9050919050565b610f9481610f79565b82525050565b6000602082019050610faf6000830184610f8b565b92915050565b610fbe81610ef6565b82525050565b600081519050919050565b600082825260208201905092915050565b60005b83811015610ffe578082015181840152602081019050610fe3565b60008484015250505050565b6000601f19601f8301169050919050565b600061102682610fc4565b6110308185610fcf565b9350611040818560208601610fe0565b6110498161100a565b840191505092915050565b60008115159050919050565b61106981611054565b82525050565b600061010082019050611085600083018b610fb5565b611092602083018a610f8b565b81810360408301526110a4818961101b565b90506110b36060830188610fb5565b6110c06080830187610fb5565b6110cd60a0830186610f8b565b81810360c08301526110df818561101b565b90506110ee60e0830184611060565b9998505050505050505050565b61110481610f79565b811461110f57600080fd5b50565b600081359050611121816110fb565b92915050565b600080fd5b600080fd5b7f4e487b7100000000000000000000000000000000000000000000000000000000600052604160045260246000fd5b6111698261100a565b810181811067ffffffffffffffff8211171561118857611187611131565b5b80604052505050565b600061119b610ee2565b90506111a78282611160565b919050565b600067ffffffffffffffff8211156111c7576111c6611131565b5b6111d08261100a565b9050602081019050919050565b82818337600083830152505050565b60006111ff6111fa846111ac565b611191565b90508281526020810184848401111561121b5761121a61112c565b5b6112268482856111dd565b509392505050565b600082601f83011261124357611242611127565b5b81356112538482602086016111ec565b91505092915050565b600080600080600060a0868803121561127857611277610eec565b5b600061128688828901611112565b955050602086013567ffffffffffffffff8111156112a7576112a6610ef1565b5b6112b38882890161122e565b94505060406112c488828901610f17565b93505060606112d588828901610f17565b92505060806112e688828901611112565b9150509295509295909350565b60006020820190506113086000830184610fb5565b92915050565b60006020820190508181036000830152611328818461101b565b905092915050565b600061133b82610f59565b9050919050565b61134b81611330565b811461135657600080fd5b50565b60008135905061136881611342565b92915050565b60008060006060848603121561138757611386610eec565b5b600061139586828701611359565b935050602084013567ffffffffffffffff8111156113b6576113b5610ef1565b5b6113c28682870161122e565b92505060406113d386828701610f17565b9150509250925092565b6000602082840312156113f3576113f2610eec565b5b600061140184828501611112565b91505092915050565b61141381611330565b82525050565b600060808201905061142e600083018761140a565b8181036020830152611440818661101b565b905061144f6040830185611060565b61145c6060830184610fb5565b95945050505050565b7f4e487b7100000000000000000000000000000000000000000000000000000000600052603260045260246000fd5b7f4e487b7100000000000000000000000000000000000000000000000000000000600052602260045260246000fd5b600060028204905060018216806114db57607f821691505b6020821081036114ee576114ed611494565b5b50919050565b7f446f63746f72206973206e6f7420617661696c61626c6520617420746865207460008201527f696d652e2e2e0000000000000000000000000000000000000000000000000000602082015250565b6000611550602683610fcf565b915061155b826114f4565b604082019050919050565b6000602082019050818103600083015261157f81611543565b9050919050565b7f696e76616c69642074696d652e2e2e0000000000000000000000000000000000600082015250565b60006115bc600f83610fcf565b91506115c782611586565b602082019050919050565b600060208201905081810360008301526115eb816115af565b9050919050565b7f4e6f7420656e6f7567682065746865722073656e7420746f20636f766572207460008201527f6865206170706f696e746d656e74206665650000000000000000000000000000602082015250565b600061164e603283610fcf565b9150611659826115f2565b604082019050919050565b6000602082019050818103600083015261167d81611641565b9050919050565b600081905092915050565b50565b600061169f600083611684565b91506116aa8261168f565b600082019050919050565b60006116c082611692565b9150819050919050565b60008190508160005260206000209050919050565b60006020601f8301049050919050565b600082821b905092915050565b60006008830261172c7fffffffffffffffffffffffffffffffffffffffffffffffffffffffffffffffff826116ef565b61173686836116ef565b95508019841693508086168417925050509392505050565b6000819050919050565b600061177361176e61176984610ef6565b61174e565b610ef6565b9050919050565b6000819050919050565b61178d83611758565b6117a16117998261177a565b8484546116fc565b825550505050565b600090565b6117b66117a9565b6117c1818484611784565b505050565b5b818110156117e5576117da6000826117ae565b6001810190506117c7565b5050565b601f82111561182a576117fb816116ca565b611804846116df565b81016020851015611813578190505b61182761181f856116df565b8301826117c6565b50505b505050565b600082821c905092915050565b600061184d6000198460080261182f565b1980831691505092915050565b6000611866838361183c565b9150826002028217905092915050565b61187f82610fc4565b67ffffffffffffffff81111561189857611897611131565b5b6118a282546114c3565b6118ad8282856117e9565b600060209050601f8311600181146118e057600084156118ce578287015190505b6118d8858261185a565b865550611940565b601f1984166118ee866116ca565b60005b82811015611916578489015182556001820191506020850194506020810190506118f1565b86831015611933578489015161192f601f89168261183c565b8355505b6001600288020188555050505b50505050505056fea26469706673582212206c1bd118ca238f34c465ccb0b0d72355f7f3de42271742b4fb9043f1bdbf7df764736f6c63430008110033",
  "linkReferences": {},
  "deployedLinkReferences": {}
}